:100000000C9468010C9490010C9490010C94900154
:100010000C9490010C9490010C9490010C9490011C
:100020000C9490010C9491140C949C110C94051256
:100030000C9490010C9490010C9490010C949001FC
:100040000C9490010C9490010C9490010C949001EC
:100050000C9490010C9490010C9490010C94471412
:100060000C9490010C9490010C9490010C949001CC
:100070000C9490010C9490010C9490010C949001BC
:100080000C9490010C9490010C9490010C949001AC
:100090000C949B140C9490010C9490010C9490017E
:1000A0000C9490010C9490010C9490010A3C2D202A
:1000B000000A3C2D200000000000250028002B0035
:1000C0002E003100000000002300260029002C0033
:1000D0002F000000000200090F0000030401000CC3
:1000E0000000000000000000000000000000000010
:1000F00000080B00020202000009040000010202D5
:100100000000052400100105240101010424020659
:1001100005240600010705810310004009040100C1
:10012000020A0000000705020240000007058302E2
:100130004000000403090412010002EF0201409A8A
:10014000230C80000101020301416461667275693C
:10015000740046656174686572203332753400003E
:10016000000000240027002A002D003000040802AF
:10017000011040804010204080408008020401802F
:10018000402010020110801020404020040404048C
:10019000040304050202020204030202020206062C
:1001A0000606060604040202020404415445002D1A
:1001B0002D2D2D2D2D2D2D2D2D2D2D2D2D2D2D009C
:1001C000415449002D2D2D2D2D2D2D2D2D2D2D2D35
:1001D0002D2D2D2D004154493D3400436F6E6E6529
:1001E00063746564210055736520476572616C64B2
:1001F0006F2061707020746F20636F6E6E65637422
:1002000020696E2055415254206D6F6465004F4B3C
:100210002100436F756C646E27742066696E6420DC
:10022000426C756566727569742C206D616B652012
:1002300073757265206974277320696E20436F6D32
:100240006D616E64206D6F64652026206368656350
:100250006B20776972696E673F00496E69746961E6
:100260006C6973696E672074686520424C45206D27
:100270006F64756C653A20002D2D2D2D2D2D2D2DA3
:100280002D2D2D2D2D2D2D2D2D2D2D2D2D2D2D2D9E
:100290002D2D2D2D2D2D2D2D2D2D2D2D2D2D2D00BB
:1002A0004465627567206D6F646520666F722047D4
:1002B0006572616C646F204669726D77617265006A
:1002C00041542B474150474554434F4E4E00E6158D
:1002D00011241FBECFEFDAE0DEBFCDBF11E0A0E0FA
:1002E000B1E0E4EAF9E302C005900D92AE3DB1073A
:1002F000D9F723E0AEEDB1E001C01D92A73CB207F3
:10030000E1F711E0C8E6D1E004C02197FE010E94A8
:10031000911CC736D107C9F70E9490160C94D01CC7
:100320000C94000090919102911103C08FEF9FEF08
:1003300008954FB7F89492E09093E9009091F200FD
:10034000292F30E01216130614F421E030E0232B9D
:1003500029F084E6809390028091F100992339F08E
:100360002091F200211103C02BE62093E8004FBF3B
:100370009923E1F290E008952FB7F89483E08093F9
:10038000E9009091E800892F807295FF04C0909158
:10039000F20080E4891B2FBF0895809188028111AB
:1003A0000DC082E08093840284E0809385021092E5
:1003B00087021092860281E08093880284E892E0AE
:1003C000089580E090E0892B49F080E090E0892B4F
:1003D00029F00E94000081110C940000089580E92A
:1003E00091E008954091580250915902209156028F
:1003F0003091570242175307B4F49091E80095707A
:10040000E1F39091E80092FD19C08093F100809192
:1004100058029091590201968F739927892B19F4EC
:100420008EEF8093E80080915802909159020196D6
:10043000909359028093580281E0089580E00895D6
:10044000DF92EF92FF920F931F93CF93DF93D82EFB
:100450008A01EB017B01E40EF51ECE15DF0559F094
:10046000D7FE12C0FE0184910E94F20121968111F3
:10047000F4CF0FEF1FEFC801DF91CF911F910F91C4
:10048000FF90EF90DF9008958881EECF0F931F9338
:10049000CF93DF931F92CDB7DEB782E0898342E42A
:1004A00050E061EF70E080E80E9420020E94CD01E0
:1004B000DC0112960D911C910115110589F0D801EE
:1004C000ED91FC910280F381E02DBE016F5F7F4FC3
:1004D000C801099597FD04C0F80100851185ECCF8E
:1004E00089810F90DF91CF911F910F910895DC01C9
:1004F000ED91FC910190F081E02D0994EF92FF9233
:100500000F931F93CF93DF938C017B01D0E0C0E06A
:10051000F701EC0FFD1F6491662361F0D801ED91A6
:10052000FC910190F081E02DC8010995892B11F013
:100530002196EECFCE01DF91CF911F910F91FF90C9
:10054000EF900895AF92BF92CF92DF92EF92FF9219
:100550000F931F93CF93DF936C017B018B01040FEB
:10056000151FEB015E01AE18BF08C017D10759F087
:100570006991D601ED91FC910190F081E02DC601C9
:100580000995892B79F7C501DF91CF911F910F91C3
:10059000FF90EF90DF90CF90BF90AF900895CF93F2
:1005A000DF931F92CDB7DEB76983DC01ED91FC913B
:1005B0000280F381E02D41E050E0BE016F5F7F4F8C
:1005C00009950F90DF91CF91089583E08093E90022
:1005D0008091F200882319F08AE38093E80008955F
:1005E0000E94BC0190E00895FC018485958597FDEB
:1005F00005C02FEF3FEF3587248708950C949201B3
:10060000CF93DF93EC018C859D8597FF04C00E94FA
:1006100092019D878C878C859D85DF91CF91089570
:10062000FC018485958597FD0BC09FB7F89482E007
:100630008093E9008091F2009FBF90E001960895B9
:100640009FB7F89482E08093E9008091F2009FBF09
:1006500090E0089581508F3008F047C0E82FF0E017
:10066000EC5CFC4F0C94911C51035503430349036C
:100670004D0375037503750358035E036203660338
:100680006C0375037003809180008F7780938000E6
:100690000895809180008F7DF9CF80918000877FC1
:1006A000F5CF84B58F7784BD089584B58F7DFBCF5A
:1006B000809190008F7780939000089580919000B2
:1006C0008F7DF9CF80919000877FF5CF8091C0001A
:1006D0008F778093C00008958091C0008F7DF9CFFF
:1006E0008091C200877F8093C2000895CF93DF93EB
:1006F000282F30E0F901EE52FF4F8491F901E359C0
:10070000FE4FD491F901E457FE4FC491CC23A1F0E0
:1007100081110E942A03EC2FF0E0EE0FFF1FEC5333
:10072000FF4FA591B491EC91ED2381E090E009F4A5
:1007300080E0DF91CF91089580E090E0FACF1F93A1
:10074000CF93DF93282F30E0F901EE52FF4F8491D1
:10075000F901E359FE4FD491F901E457FE4FC491DA
:10076000CC23A9F0162F81110E942A03EC2FF0E070
:10077000EE0FFF1FEA54FF4FA591B4918FB7F89485
:10078000EC91111108C0D095DE23DC938FBFDF916F
:10079000CF911F910895DE2BF8CFCF93DF9390E098
:1007A000FC01E359FE4F249184579E4FFC01849134
:1007B0008823D1F090E0880F991FFC01E15AFE4F89
:1007C000A591B491FC01EA54FF4FC591D4916111F8
:1007D0000EC09FB7F8948C91E22FE0958E238C93F6
:1007E0002881E223E8839FBFDF91CF9108958FB7DF
:1007F000F894EC91E22BEC938FBFF6CFE82FF0E06A
:10080000EE52FF4FE491E150EF3008F07CC0F0E091
:10081000E45FFB4F0C94911C1B04200425042F045F
:10082000390483048304830443044D04570461049E
:100830006E048304760484B5806884BD67BD089522
:1008400084B5806284BD68BD089580918000806811
:100850008093800070938900609388000895809150
:10086000800080628093800070938B0060938A0088
:1008700008958091800088608093800070938D003F
:1008800060938C0008958091900080688093900020
:100890007093990060939800089580919000806211
:1008A0008093900070939B0060939A0008958091CC
:1008B000900088608093900070939D0060939C00EE
:1008C00008958091C00080688093C0008091C0002E
:1008D0008F7B8093C0006093CF0008958091C0000B
:1008E00080628093C0006093D00008958091C20020
:1008F00088608093C2008091C2008B7F8093C20089
:100900006093D2000895603871051CF460E00C9487
:100910009F0361E0FCCF3FB7F89480915202909121
:100920005302A0915402B091550226B5A89B05C070
:100930002F3F19F00196A11DB11D3FBFBA2FA92F5E
:10094000982F8827BC01CD01620F711D811D911D5B
:1009500043E0660F771F881F991F4A95D1F70895C6
:100960008F929F92AF92BF92CF92DF92EF92FF92BF
:100970006B017C010E948B044B015C01C114D1040A
:10098000E104F104B9F00E948B04681979098A091D
:100990009B09683E73408105910580F321E0C21AEE
:1009A000D108E108F10888EE880E83E0981EA11CAA
:1009B000B11CE4CFFF90EF90DF90CF90BF90AF904D
:1009C0009F908F9008958F929F92AF92BF92CF92F7
:1009D000DF92EF92FF920F931F93CF93DF936C01FF
:1009E0007B018A0180910B01882309F45BC080910F
:1009F0009102882309F456C080915C0280FF05C0F3
:100A00008091E00082608093E000E801B12C8AEFE1
:100A1000A82E93E0892E2AE3922E209711F4BB2072
:100A2000D9F10E94BC0181110AC0AA94AA20D1F177
:100A300061E070E080E090E00E94B004EECF8C179F
:100A40001D0611F00CF08C2F9FB7F8948092E900EE
:100A50002091E80025FD02C09FBFDFCF282F30E0A6
:100A6000C21BD30BF701815020F041914093F1005C
:100A7000FACFE20EF31EBB2021F09092E800B12CD9
:100A8000EBCF8091E80085FDE7CF9092E800BB2492
:100A9000B394209709F3F3CF84E680935B0210169A
:100AA00011063CF081E090E0F6019383828310E030
:100AB00000E0C801DF91CF911F910F91FF90EF905F
:100AC000DF90CF90BF90AF909F908F9008952FB7F9
:100AD000F89460914E0270914F0280915002909173
:100AE00051022FBF08954F925F926F927F929F9213
:100AF000AF92BF92CF92DF92EF92FF920F931F932C
:100B0000CF93DF9300D01F92CDB7DEB7F090EE0207
:100B10008091F1029091F202A091F302B091F4025F
:100B2000892B8A2B8B2BD9F00E948B0400919A027F
:100B300010919B0220919C0230919D02601B710BD1
:100B4000820B930B0091F1021091F2022091F302BB
:100B50003091F4026017710782079307C8F20E9470
:100B60008B0460939A0270939B0280939C029093F3
:100B70009D02E091F902F091FA02309759F040910C
:100B8000F5025091F6026091F7027091F8028F2DF4
:100B90000995F82E00919802109199024F2C512C32
:100BA000712C612C0115110509F45EC0D8011C9649
:100BB000EC901C978091EF029091F00284369105A1
:100BC00010F41C961C92D801ED91FC91A280B38088
:100BD00019821A821B82FF2089F1F8013696D12CE6
:100BE000C12C2191222319F19280992001F130E04A
:100BF00050E040E02F5F3F4F4F4F5F4FC301B201C6
:100C00000E94E61B9B01AC01892D90E0B0E0A0E0C2
:100C1000BC01CD016F5F7F4F8F4F9F4F0E94E61B3E
:100C2000A1E0B0E0AC0FBD1FAC0DBD1D8C93BFEFBC
:100C3000CB1ADB0A83E0C816D10499F6D8011D96B9
:100C40004D915C911E9712966D917C919E012F5F44
:100C50003F4FC801F5010995D8011C96EC921C97ED
:100C600014960D911C919ECF8091960290919702BF
:100C70008C010F5F1F4F10939702009396024997C4
:100C8000B4F10E946705C0909202D0909302E09068
:100C90009402F09095029B01AC012C193D094E097C
:100CA0005F0921F421E030E040E050E088EE93E07D
:100CB000089FB001099F700D189F700D1124072E19
:100CC000000C880B990B0E94F61B3093F0022093C6
:100CD000EF0210929702109296020E9467056093AD
:100CE00092027093930280939402909395020F90D6
:100CF0000F900F90DF91CF911F910F91FF90EF9088
:100D0000DF90CF90BF90AF909F907F906F905F905B
:100D10004F9008958F929F92AF92BF92CF92DF92A1
:100D2000EF92FF920F931F93CF93DF938C010F5994
:100D30001F4FF80120812F3FA1F46EBD00000DB4BC
:100D400007FEFDCFCEB58C2FDF91CF911F910F9174
:100D5000FF90EF90DF90CF90BF90AF909F908F90DB
:100D60000895D62FC0E027E0E22EF12CCC24C394C6
:100D7000D12C5C01F2E6AF0EB11C4C0123E6820ED1
:100D8000911CCC0F60E0F80180810E949F03B601A6
:100D90000E2C01C0660F0A94EAF76D23F5018081DD
:100DA0000E949F0361E0F80180810E949F03F4018B
:100DB00080810E947603892B09F0C160F1E0EF1A6F
:100DC000F108F8F660E0F80180810E949F03BBCF34
:100DD000EF92FF920F931F93CF93DF937C01EB0170
:100DE0008B01040F151FC017D10731F06881C701AF
:100DF0000E948A068993F7CFDF91CF911F910F91BF
:100E0000FF90EF900895FC01EB54FF4F178216827C
:100E100011861086138612860895623098F4DC01DC
:100E20001C962C911C97261302C081E00895FC01AA
:100E300064876111FACFED91FC910680F781E02D76
:100E40000995F3CF80E0089508958CBD9DBD089568
:100E5000CF92DF92EF92FF92CF93DF93EC010E944B
:100E60006705C880D980EA80FB806C197D098E09EE
:100E70009F0921E0CC80DD80EE80FF806C157D0530
:100E80008E059F0508F420E0822FDF91CF91FF901F
:100E9000EF90DF90CF900895089585ED8093BC008A
:100EA0008091BC0084FDFCCF109225020895613230
:100EB00098F420912502243089F460930102282FB0
:100EC000A1EEB1E0FC018E2F821B861710F080E0AE
:100ED000089581918D93F7CF81E0089582E0089580
:100EE00008958FEF9FEF08958FEF9FEF0895809102
:100EF000E00190E09195819591090895CF93DF935A
:100F0000CB01EA01642F0E945707CE01DF91CF91F8
:100F10000895CF93DF931F92CDB7DEB7698361E069
:100F2000CE0101960E94570781E090E00F90DF917B
:100F3000CF91089590E080E008950F931F93CF9391
:100F4000DF932091DF012F5F322F37703093DF0165
:100F500020FF2BC020E831FD2064347009F02062AE
:100F6000205FFC01EC01239600E011E0648566231C
:100F700029F070E0C8010E947D1C6F5F6187322FED
:100F8000369F030E30E0311D1124311110C016823E
:100F9000662311F0615061873196EC17FD0731F738
:100FA000DF91CF911F910F91089520E0D4CF315060
:100FB0003683EECF4F925F926F927F928F929F9285
:100FC000AF92CF92DF92EF92FF920F931F93CF9346
:100FD000DF933C01EB010E948B04F30127853089EC
:100FE000621B730B6A307105B0F3F894E881F981E4
:100FF0000BB104601BB11B7F1BB9CA848F814C2DC0
:10100000481B842F4F839F844A805B80FD84EC843F
:10101000DE84F394E394D3949E8138858984AB84F1
:101020004181D20120E0622F722F71814427889480
:101030007111780F08F47FEF81958894F0FC470FC9
:1010400047958894F1FC470F47958894F2FC470F29
:1010500047958894F3FC470F47958894F4FC470F15
:1010600047958894F5FC470F47958894F6FC470F01
:1010700047958894F7FC470F47958894272FF110E0
:10108000242F8C0D422F002C0BB947FF1BB9708108
:10109000222788941BB97111790F0BB946FF1BB930
:1010A00008F47FEF919588941BB9E0FC270F0BB9EA
:1010B00045FF1BB927958894E1FC270F1BB927959D
:1010C00088940BB944FF1BB9E2FC270F279588943D
:1010D0001BB9E3FC270F0BB943FF1BB92795889475
:1010E000E4FC270F1BB9279588940BB942FF1BB965
:1010F000E5FC270F279588941BB9E6FC270F0BB951
:1011000041FF1BB927958894E7FC270F1BB927954A
:1011100088940BB940FF1BB9472FE110422F980D5F
:101120001BB900C00BB947FF1BB9728122278894F5
:101130001BB97111730F0BB946FF1BB908F47FEF90
:10114000E90DF11D1BB9D0FC270F0BB945FF1BB9E9
:1011500027958894D1FC270F1BB9279588940BB944
:1011600044FF1BB9D2FC270F279588941BB9D3FCE9
:10117000270F0BB943FF1BB927958894D4FC270F81
:101180001BB9279588940BB942FF1BB9D5FC270FD3
:10119000279588941BB9D6FC270F0BB941FF1BB9C3
:1011A00027958894D7FC270F1BB9279588940BB9EE
:1011B00040FF1BB9472FD110422F31951BB93A0D73
:1011C000002C0BB947FF1BB97181222788941BB9EA
:1011D0007111780F0BB946FF1BB908F47FEF8195A9
:1011E00088941BB9F0FC270F0BB945FF1BB9279555
:1011F0008894F1FC270F1BB9279588940BB944FFFD
:101200001BB9F2FC270F279588941BB9F3FC270F15
:101210000BB943FF1BB927958894F4FC270F1BB922
:10122000279588940BB942FF1BB9F5FC270F27952A
:1012300088941BB9F6FC270F0BB941FF1BB9279502
:101240008894F7FC270F1BB9279588940BB940FFAA
:101250001BB9472FF110422F8C0D1BB9119709F0C4
:1012600013CF20EF30E0D2010E94971C6B017C016C
:10127000F3E0F694E794D794C794FA95D1F730E069
:1012800020E0F9018AE9489E040CE11D589EE00D1A
:10129000F11D1124E50DF11DCF01B0E0A0E0880F94
:1012A000991FAA1FBB1F8C0D9D1DAE1DBF1D893E22
:1012B000E3E09E07A105B10508F434C0885E9340C1
:1012C000A109B10942E0B695A795979587954A95EA
:1012D000D1F747E0849F080E211D949F200D311DFA
:1012E0001124290F311D6091DE0170E0860F971FD8
:1012F000820F931F40914E0250914F026091500215
:1013000070915102292F3327420F531F611D711D08
:1013100040934E0250934F026093500270935102DB
:101320008093DE0178940E948B04F301708B6787B1
:10133000DF91CF911F910F91FF90EF90DF90CF90B1
:10134000AF909F908F907F906F905F904F90089597
:10135000529A08950F931F93CF93DF93CDB7DEB7C3
:1013600062970FB6F894DEBF0FBECDBF8C01F901B6
:10137000DC011C968C917A8369835C834B835E834A
:101380004D8390819D8791819E8792819F87813037
:10139000F1F4CE0101960E949D0783E0888B1A8AA2
:1013A000198AD801ED91FC910484F585E02DBE01E8
:1013B0006F5F7F4FC801099562960FB6F894DEBF44
:1013C0000FBECDBFDF91CF911F910F9108951C8665
:1013D0001B861A86198618861F82DFCF0F931F93EC
:1013E000CF93DF93CDB7DEB762970FB6F894DEBF29
:1013F0000FBECDBF8C01F901DC011C968C917A8364
:1014000069835C834B835E834D8390819D8791814B
:101410009E8792819F878130E9F4CE0101960E94D8
:101420009D07188A1A8A198AD801ED91FC910484C3
:10143000F585E02DBE016F5F7F4FC801099562966B
:101440000FB6F894DEBF0FBECDBFDF91CF911F91D5
:101450000F9108951C861B861A86198618861F828E
:10146000E0CF90E080E00895FC01858596850895A1
:10147000CF93DF9300D000D000D0CDB7DEB7AB0163
:101480001C821D821E82DC01ED91FC910190F08195
:10149000E02D19821A821B829E012F5F3F4FBE01F1
:1014A0006C5F7F4F099526960FB6F894DEBF0FBE8E
:1014B000CDBFDF91CF91089560E089E00E949F0346
:1014C00061E081E00E94CD0360E081E00E949F0323
:1014D00061E08DE00E94CD0360E08DE00C949F03FD
:1014E00061E089E00E949F0361E081E00E94CD03FA
:1014F00068EC70E081E00E94FE0361E08DE00E94F4
:10150000CD0368EC70E08DE00C94FE030E949E1CFD
:10151000FB0101900020E9F73197AF01461B570B03
:10152000DC01ED91FC910280F381E02D09948F9212
:101530009F92AF92BF92EF92FF920F931F93CF9320
:10154000DF93CDB7DEB7A1970FB6F894DEBF0FBE1D
:10155000CDBF7C01FA01CB0119A2223008F42AE0A8
:101560008E010F5D1F4F822E912CB12CA12CBF013B
:10157000A50194010E94F61BF901CA016A300CF51D
:10158000605DD8016E938D01232B242B252B79F7D9
:1015900090E080E0109721F0BD01C7010E94880A09
:1015A000A1960FB6F894DEBF0FBECDBFDF91CF91ED
:1015B0001F910F91FF90EF90BF90AF909F908F90F1
:1015C0000895695CDECFCF92DF92EF92FF920F9386
:1015D0001F93CF93DF936B01770FEE08FF08F7FEA1
:1015E0001BC0EC016DE20E9477028C014427552755
:1015F000BA014C195D096E097F092AE0CE010E94EB
:10160000970A800F911FDF91CF911F910F91FF904B
:10161000EF90DF90CF9008952AE0B701A601DF9107
:10162000CF911F910F91FF90EF90DF90CF900C948E
:10163000970ACF92DF92EF92FF920F931F93CF936F
:10164000DF938C017B016A01D0E0C0E0C114D104BA
:10165000C1F0D801ED91FC910084F185E02DC80125
:101660000995892BE9F1D801ED91FC910284F3856C
:10167000E02DC80109958D3061F38A3039F5209746
:1016800041F3F701EC0FFD1F1082F80185858823D7
:1016900099F0209789F0E114F10429F0B7018EE95F
:1016A00092E00E94880AC034D10530F46FE571E001
:1016B0008EE992E00E94880ACE01DF91CF911F91BE
:1016C0000F91FF90EF90DF90CF900895F701EC0F0E
:1016D000FD1F80832196C034D10508F4BACFD1CF45
:1016E000B1E0CB1AD10869F261E070E080E090E0EF
:1016F0000E94B004ABCFFC0144815581BC01625F04
:101700007F4F0C94190B0F931F93CF93DF93EC0132
:101710000E947E028C016FE571E0CE010E94880A72
:10172000800F911FDF91CF911F910F910895CF935B
:10173000DF93EC012E813F818A819B812817390735
:1017400019F48D81882329F14C8150E02885398551
:10175000429FC001439F900D529F900D11242881FC
:101760003981820F931F0E94B01C888599852A8138
:101770003B810196B9010E94691C998788878E81F7
:101780009F812817390741F4888599859B878A8727
:1017900081E0DF91CF9108958E819F8101969F8393
:1017A0008E83F6CFCF92DF92EF92FF920F931F932B
:1017B000CF93DF931F92CDB7DEB7FC01348521E0D4
:1017C000231B248721E3231B29838C010B541F4FE8
:1017D000BE016F5F7F4FC8010E94970B86E0E82E25
:1017E000F12C9BE5C92E91E0D92EB601C8010E94CB
:1017F000970B882341F0F8018481C80ED11CF1E0D9
:10180000EF1AF10891F70F90DF91CF911F910F918F
:10181000FF90EF90DF90CF9008958F929F92AF92BC
:10182000BF92CF92DF92EF92FF920F931F93CF93CD
:10183000DF93CDB7DEB76C970FB6F894DEBF0FBE5F
:10184000CDBF7C01B62EA72E6A01122F01110DC04B
:10185000DC011C968C911C97882339F0ED91FC914A
:101860000680F781E02DC701099580E18983AB826D
:10187000BA828C818078912F9F77892B8C8310314D
:1018800009F000E08C8100FB87F98C83C114D1043E
:1018900049F0112339F0412F50E0B601CE010596F1
:1018A0000E94B01CF701EF59FF4F80818F3F31F448
:1018B0008091FB029091FC020E9425076701BEE522
:1018C000CB0ED11C60E0F60180810E949F03D701FE
:1018D00014968D909D90AD90BC9017970E946705CF
:1018E0006D8B7E8B8F8B988F898E9A8EAB8EBC8EF4
:1018F00080E6A82EB12C6981C7010E948A068E3F1E
:10190000A1F4CE0145960E94280781110EC061E026
:10191000F60180810E949F03C5010197F1F760E005
:10192000D6018C910E949F03E6CFCE0145960E947E
:10193000280701E0082751F0412F50E04D5F5F4F2D
:10194000BE016E5F7F4FC7010E94E80661E0F601AD
:1019500080810E949F03802F6C960FB6F894DEBFA3
:101960000FBECDBFDF91CF911F910F91FF90EF90F0
:10197000DF90CF90BF90AF909F908F9008952F925F
:101980003F924F925F926F927F928F929F92AF920F
:10199000BF92CF92DF92EF92FF920F931F93CF935C
:1019A000DF93CDB7DEB7A2970FB6F894DEBF0FBEB8
:1019B000CDBF8C013C0185EB680E711C94E1292E92
:1019C000FE013196FE8FED8FC801815A9F4F98A37B
:1019D0008F8FF801EF59FF4FFAA3E9A36801FEE5E5
:1019E000CF0ED11C20E6422E512CF30126813781E7
:1019F00082819381821B930B409708F4F5C0ED8D93
:101A0000FE8D822D11928A95E9F7F80184809580E8
:101A1000A680B780880C991CAA1CBB1C0E94670575
:101A20006D8B7E8B8F8B988F898E9A8EAB8EBC8EB2
:101A3000EF8DF8A180810E947603892B09F5CE01F4
:101A400045960E942807882399F3312C832DA2966E
:101A50000FB6F894DEBF0FBECDBFDF91CF911F91BF
:101A60000F91FF90EF90DF90CF90BF90AF909F903D
:101A70008F907F906F905F904F903F902F90089540
:101A8000E9A1FAA180818F3F31F48091FB0290910E
:101A9000FC020E94250760E0F60180810E949F03FE
:101AA000F80184809580A680B7800E9467056D8BC1
:101AB0007E8B8F8B988F898E9A8EAB8EBC8ECE014B
:101AC00045960E94280781111BC06FEFC8010E9434
:101AD0008A0689838E3F71F461E0F60180810E945D
:101AE0009F03C2010197F1F760E0F60180810E9437
:101AF0009F0302C08F3F81F389818E5F8230F8F2AD
:101B00008981803271F0803861F0CE0145960E9463
:101B10002807811106C06FEFC8010E948A068983D9
:101B2000EFCFCE0145960E942807882359F1312C2A
:101B300061E0F60180810E949F03332009F485CF84
:101B40008C818F77D9F0E82EF12CE114F104B1F0FB
:101B50004E01F5E08F0E911CB12CA12CB401C301F4
:101B60000E94970B882351F08FEFA81AB80AF3014F
:101B70008481880E911CAE14BF0480F38C8187FD94
:101B800034CF64CF43E050E06FEF70E0CE010296B7
:101B90000E94B91C43E050E0BE016E5F7F4FC80158
:101BA0000E94E8068A819B812981203809F4BFCFF1
:101BB0009A50039708F0BBCF8C818F77813108F062
:101BC000B6CFE82EF12CA7016FEF70E0CE0105969D
:101BD0000E94B91CA701BE016B5F7F4FC8010E9424
:101BE000E80633243394A4CF332433942FCFCF92F9
:101BF000DF92EF92FF920F93CF93DF931F92CDB7B7
:101C0000DEB76C017C0185EBE80EF11CF7018681E3
:101C10009781892B81F4F6018485882351F1E15A5B
:101C2000FF4F80810E947603892B61F5F701868141
:101C30009781892B59F1448150E022853385429F59
:101C4000C001439F900D529F900D112460817181BE
:101C5000680F791FCE0101960E94B01C898190E027
:101C60000F90DF91CF910F91FF90EF90DF90CF9089
:101C7000089500E020E050E040E062E07AE0C60134
:101C80000E940D0CC6010E94BF0CD0CF8FEF9FEFBA
:101C9000E7CFCF92DF92EF92FF920F93CF93DF9334
:101CA0001F92CDB7DEB76C017C0185EBE80EF11C0D
:101CB000F70186819781892B89F186819781892B0C
:101CC00011F1448150E022853385429FC001439F3A
:101CD000900D529F900D112460817181680F791FC2
:101CE000CE0101960E94B01CF70182859385019672
:101CF000628173810E94691C9387828786819781A4
:101D0000019797838683898190E00F90DF91CF912F
:101D10000F91FF90EF90DF90CF900895F6018485AA
:101D200081110DC000E020E050E040E062E07AE088
:101D3000C6010E940D0CC6010E94BF0C07C0E15AEB
:101D4000FF4F80810E947603892BA9F7F7018681D6
:101D50009781892B09F0B5CF8FEF9FEFD6CFEF9208
:101D6000FF920F93CF93DF937C0125EBE20EF11CE2
:101D7000F70126813781232B41F086819781DF91FE
:101D8000CF910F91FF90EF900895FC0124852111D0
:101D90000DC0EC0100E050E040E062E07AE00E941B
:101DA0000D0CCE010E94BF0CF701E7CF815A9F4F67
:101DB000FC018081DF91CF910F91FF90EF900C9407
:101DC00076038F929F92AF92BF92CF92DF92EF9263
:101DD000FF920F93CF93DF935C017B01EA01DC015B
:101DE0001C968C918823B1F06B01C40ED51ED0E0F7
:101DF000C0E0EC14FD0461F1D7016D917D01D501C6
:101E0000ED91FC910190F081E02DC5010995C80F7D
:101E1000D91FEFCFF501EF53FF4F8081882329F1C0
:101E20004330510510F143E050E062E671E0C70134
:101E30000E94A31C892BC9F4C330D10531F0F701EE
:101E400083818D3011F08A3081F4C5010E94D20B5C
:101E5000CE01DF91CF910F91FF90EF90DF90CF9067
:101E6000BF90AF909F908F9008956E01C114D104E0
:101E7000B9F04601F1E1CF16D10418F080E1882EC7
:101E8000912CC818D90801E009F400E0282DA70119
:101E900061E07AE0C5010E940D0CE80CF91CE6CF68
:101EA000C5010E94BF0CD4CFAF92BF92CF92DF92F8
:101EB000EF92FF920F931F93CF93DF931F92CDB7B3
:101EC000DEB77C016983FC01848581111BC000E0C1
:101ED00021E0AE014F5F5F4F61E07AE0C7010E94F1
:101EE0000D0CC7010E94BF0C81E090E00F90DF91C4
:101EF000CF911F910F91FF90EF90DF90CF90BF9007
:101F0000AF90089589816701F4E7CF0ED11CF601E7
:101F100010818D3011F08A3069F51123C1F057011D
:101F2000F4E6AF0EB11CF701EF53FF4F8081882319
:101F3000C1F043E050E062E671E0C5010E94A31CDD
:101F4000892B79F4C7010E94D20BF6011082F701A8
:101F50008585882349F269818EE992E00E947702A3
:101F6000C3CF00E0212FA50160E07AE0C7010E9405
:101F70000D0CEBCF103199F401E020E15701F4E6AC
:101F8000AF0EB11CA50160E07AE0C7010E940D0C04
:101F90008981F501808381E0F6018083D8CF91E0CB
:101FA000910F9083F701E10FF11DEC59FF4FF5CF31
:101FB000EF92FF920F931F93CF93DF93CDB7DEB7CE
:101FC000C154D1090FB6F894DEBF0FBECDBF8C014E
:101FD000FC018585882331F06CEA70E08EE992E09F
:101FE0000E947E027801FEE0EF0EF11CF8014481B0
:101FF0005581BE016F5F7F4FC8010E94190B892B6D
:1020000031F166E671E0CE0101960E94C01C892B79
:1020100079F069E671E0CE0101960E94C01C892B1F
:10202000B1F0BE016F5F7F4FC7010E94C91CDECFB8
:1020300081E0CF5BDF4F0FB6F894DEBF0FBECDBFA0
:10204000DF91CF911F910F91FF90EF90089580E065
:10205000F0CF2F923F924F925F926F927F928F922A
:102060009F92AF92BF92CF92DF92EF92FF920F9327
:102070001F93CF93DF93EC016B01642E590180E035
:10208000861508F0B1C06DE3CE010E947702F5011C
:10209000E080F180C70188278115F4E09F0709F4EB
:1020A0006EC0B0F48115E2E09E0779F18115F3E08E
:1020B0009F0709F46EC081159140A1F4F801608179
:1020C00071816115710571F0CE010E94880A0AC004
:1020D0008115E6E09E0709F472C030F48115954041
:1020E00009F475C081E0CCCF8115E7E09E0709F4C3
:1020F00075C081159840B1F7F80140815181628126
:1021000073815527662777273FC0FF24F801808118
:102110009181A281B3814701880E991EF401EE19C5
:10212000FF0921E0E21AF108E8F27080E881F98104
:102130000190F081E02D672D62956F7080E36A3029
:1021400008F087E3680FCE010995E881F9810190D5
:10215000F081E02D672D6F7080E36A3008F087E32F
:10216000680FCE010995E114F104C1F2E881F9810B
:102170000190F081E02D6DE2CE010995CFCFF801FD
:1021800040815181628173812AE0CE010E94970AC9
:10219000A9CFF80120803180428053802AE0B2012B
:1021A000A10157FEF2CF6DE2CE010E9477024427D3
:1021B0005527BA014219530964097509E5CFF80199
:1021C000408151816281738166277727DDCFF801D5
:1021D00060817181CE010E94E30A84CFF8016081A1
:1021E000062E000C770BF6CF6FE571E0CE010E9452
:1021F000880AC114D104D9F08D85882331F061EBB0
:1022000070E08EE992E00E947E02CE010E947B0B7C
:10221000892B11F150E040E070E060E0CE010E96B5
:102220000E94C31AF6016083718382839383CE0177
:10223000DF91CF911F910F91FF90EF90DF90CF90A2
:10224000BF90AF909F908F907F906F905F904F90D6
:102250003F902F900C94D80F60E070E0CB01E2CF5C
:102260000F931F93CF93DF93C0910F03C11103C04E
:1022700021E020930F03BC0183E093E00E94880AD1
:1022800010E000E030E020E040E070E060E083E05B
:1022900093E00E942910D82FC11105C060E083E0AF
:1022A00093E00E940D078D2FDF91CF911F910F9129
:1022B0000895FF920F931F93CF93DF9300D000D028
:1022C000CDB7DEB719821A821B821C82F0900F03F1
:1022D000F11005C061E083E093E00E940D0760EC1F
:1022E00072E083E093E00E947E0210E000E030E0C4
:1022F00020E040E0BE016F5F7F4F83E093E00E94EB
:102300002910F11005C060E083E093E00E940D0702
:1023100081E049815A816B817C81452B462B472B7B
:1023200009F480E00F900F900F900F90DF91CF9104
:102330001F910F91FF9008951F920F920FB60F9269
:1023400011248F939F938091E1009091E100937FFE
:102350009093E10083FF0FC01092E90091E0909309
:10236000EB001092EC0092E39093ED00109291023A
:1023700098E09093F00082FF1CC093E09093E900F6
:102380009091F200992319F09AE39093E8009091CC
:102390005B02992329F090915B02915090935B022C
:1023A00090919002992329F09091900291509093EE
:1023B000900284FF18C08091E2008E7E816080933D
:1023C000E2008091E1008F7E8093E10080915C02C9
:1023D0008E7E806180935C029F918F910F900FBEE3
:1023E0000F901F90189580FFF7CF8091E2008E7EAE
:1023F00080618093E2008091E1008E7E8093E10015
:1024000080915C028E7E8160E5CF1F920F920FB6A5
:102410000F921124CF92DF92EF92FF920F931F93AE
:102420002F933F934F935F936F937F938F939F93DC
:10243000AF93BF93EF93FF93CF93DF93CDB7DEB707
:102440006C97DEBFCDBF1092E9008091E80083FF5A
:102450002FC089E0FE017596EE2EDF2E815029F007
:102460009091F10090833196F9CF84E680939002A9
:1024700082EF8093E8008D8987FF39C09091E80052
:1024800090FFFCCF982F907609F033C19E894F8939
:10249000588D2F89F88C911131C0803861F5809169
:1024A0005D028093F1001092F1008EEF8093E800BE
:1024B0006C960FB6F894DEBF0FBECDBFDF91CF9103
:1024C000FF91EF91BF91AF919F918F917F916F910C
:1024D0005F914F913F912F911F910F91FF90EF903E
:1024E000DF90CF900F900FBE0F901F9018959EEF2A
:1024F0009093E800C7CF1092F100D5CF913059F4F6
:102500008111D3CF4130510581F680915D028D7FDD
:1025100080935D02CACF933049F48111C6CF413018
:10252000510519F680915D028260F2CF953041F439
:102530008091E80080FFFCCF20682093E300B5CFB6
:10254000963009F0A8C00B8D1C8D22E01092E90096
:102550001092590210925802F2122EC01092570295
:10256000109256020E9446021F8299E09983FA82D5
:1025700091E09E8390EA98879AEF9987209158027C
:1025800030915902275F3F4F3C832B838D831092FC
:10259000E9001092590210925802109357020093CA
:1025A000560249E050E0BE016F5F7F4F80E00E941D
:1025B00020020E94460279CF1093570200935602E0
:1025C0000E94CD01DC0112960D911C91011511059F
:1025D00009F457C1D801ED91FC910480F581E02DFB
:1025E0006E2D7D2DC8010995009709F045C1F801B0
:1025F00000851185EBCFF3E0FF120EC08F89882391
:1026000009F440C0823061F440E86CE082E591E07A
:102610000E94B315811149CF81E28093EB0048CF2E
:10262000813029F440E868E089E491E0F1CF83301B
:1026300099F70E94CD01DC011296ED90FC908E017D
:102640000F5F1F4F6801E114F10479F0D701ED919C
:10265000FC910680F781E02DB801C7010995080FAC
:10266000111DF701E084F184EECFD8011C92F60130
:1026700001900020E9F73197BF016C197D0940E016
:10268000C601C6CF63E371E0FB01449150E080E8EE
:102690000E9420020ACF973009F4BECF983021F46F
:1026A00081E08093F10001CF993009F0FECE837074
:1026B00009F0B2CFEDE0F1E081E031E096E3219165
:1026C000222371F08093E9003093EB00DF01119732
:1026D0002C912093EC009093ED008F5F873079F779
:1026E0008EE78093EA001092EA008F89809391022E
:1026F000DCCE8B8D9C8D1092E900109259021092C5
:1027000058029093570280935602898D81119AC086
:102710008E899D89913A49F4813209F07DCF47E055
:1027200050E064E071E080E0B3CF913209F074CF03
:10273000833269F48F89988DB0E0A0E08093000126
:1027400090930101A0930201B0930301AECE8032B9
:10275000A9F48091E80082FFFCCF88E0E4E0F1E09A
:10276000815029F09091F10090833196F9CF84E661
:10277000809390028BEF8093E80097CE823209F02D
:1027800094CE8F8980930B01EEEFFFE785919491B2
:102790008B3F9C4D51F1E0E0F8E080910401909175
:1027A0000501A0910601B0910701803B9440A1056D
:1027B000B105F1F480910B0180FD1AC0EE3F8AE073
:1027C000F80789F587E797E7918380838091600018
:1027D00080935A0288E19BE00FB6F894A895809305
:1027E00060000FBE9093600060CEEEEFFAE0D5CFB0
:1027F000808191818737974709F057CEA8958091BE
:10280000600088618093600080915A02809360002C
:10281000EE3F2AE0F20789F08091FE0A9091FF0ACC
:102820009183808342CE808191818737980751F2CE
:102830009093FF0A8093FE0AC5CF1092FF0A109270
:10284000FE0A33CE0E94CD01DC0112960D911C913F
:102850000115110509F4E0CED801ED91FC9101902C
:10286000F081E02D6E2D7D2DC801099581111DCEC1
:10287000F80100851185ECCF181619060CF415CE59
:10288000CBCEF1E0FF12B7CE67E371E0FDCE1F9231
:102890000F920FB60F9211242F933F938F939F9314
:1028A000AF93BF9380914E0290914F02A09150023E
:1028B000B091510230914D0226E0230F2D3758F58B
:1028C0000296A11DB11D20934D0280934E0290935C
:1028D0004F02A0935002B093510280915202909106
:1028E0005302A0915402B09155020196A11DB11D51
:1028F0008093520290935302A0935402B0935502D6
:10290000BF91AF919F918F913F912F910F900FBEEB
:102910000F901F90189529E8230F0396A11DB11D54
:10292000D2CF1F920F920FB60F9211240F900FBEAD
:102930000F901F9018951F920F920FB60F921124AF
:102940002F933F934F935F936F937F938F939F93B7
:10295000AF93BF93EF93FF938091B900887F803648
:1029600009F44AC0F0F5883209F4A5C018F58031A1
:1029700009F499C0B8F4882309F4F2C0883009F446
:1029800092C0FF91EF91BF91AF919F918F917F91F5
:102990006F915F914F913F912F910F900FBE0F90CC
:1029A0001F901895883109F486C0803251F78093C2
:1029B000240214C0803409F49BC040F48033B9F37E
:1029C0008833F9F68093240285ECAEC0803509F493
:1029D00083C0883509F494C0883499F60E944D0765
:1029E000D0CF883909F48AC038F5883729F050F4F7
:1029F000883611F0803729F683E080932502109203
:102A0000230255C0883809F479C0803919F080381C
:102A100009F0B7CF80912302803208F06FC0E091B7
:102A2000230281E08E0F809323028091BB00F0E0AF
:102A3000ED5FFD4F80833BC0803B39F0D0F4803A9E
:102A400009F477C0883A09F09CCF84E0809325028E
:102A50001092020210920102F0E0E0E009958091EC
:102A6000010281110FC081E0809301021092E10107
:102A700009C0803C09F4A8CF883C09F4A5CF883B65
:102A800009F07FCFE091020281E08E0F8093020275
:102A9000F0E0EF51FE4F80818093BB0090910202E5
:102AA0008091010229C080914A028093BB0085EC8D
:102AB0008093BC0066CF909149028091480298179C
:102AC00058F5E091490281E08E0F80934902F0E0D1
:102AD000E85DFD4F8081E9CFE091490281E08E0FF2
:102AE000809349028091BB00F0E0E85DFD4F808358
:102AF00090914902809148029817C8F285E8D8CF92
:102B0000E091490281E08E0F809349028091BB00E1
:102B1000F0E0E85DFD4F80838091270281115ECF58
:102B200081E08093260284EA8093BC001092250203
:102B300028CF80912302803230F4E0912302F0E02C
:102B4000ED5FFD4F10820E944D076091230270E0FF
:102B500083E092E0F0E0E0E009951092230234CFA8
:102B6000109224023BCFEF92FF920F931F93CF93CB
:102B7000DF93F82E192FE62E042F81E0860F880FA1
:102B80000E94F20183E00E94F201CF2DD12FEC0EC2
:102B9000FD2EF11CCE15DF05B9F007FF13C0FE01B5
:102BA00084910E94F201182F80E00E94F20181239B
:102BB00021968111EFCFDF91CF911F910F91FF905F
:102BC000EF9008958881EDCF81E0F5CFEEE9F2E056
:102BD0001382128288EE93E0A0E0B0E084839583B4
:102BE000A683B78389E391E0918380838FEF9FEF82
:102BF00095878487EEEEF2E09FEF90831282118238
:102C0000148613864FEF5FEFBA01478350876187C1
:102C10007287EBEFF2E080E5808381E08183E3E07F
:102C2000F3E013821282848715864AEF50E060E059
:102C300070E0448355836683778310925303109228
:102C40005403109255031092560310925803109299
:102C5000570310925A031092590310925C0310927A
:102C60005B0310925E0310925D031092600310925A
:102C70005F032BE431E03183208328E733E0309396
:102C8000B9032093B80320E430E03093BB032093D2
:102C9000BA038093BC038093BD031092C3031092C8
:102CA000C2031092C1031092C0031092BF0310928E
:102CB000BE0323E02093520328E02093610327E022
:102CC0002093620324E02093630390936403909322
:102CD000650390936603109277038093C40361E0C9
:102CE0008AE00E94CD0361E085E00E94CD0361E0AF
:102CF0008CE00E94CD0361E086E00E94CD0361E09C
:102D000081E00E94CD0361E08DE00E94CD0361E08F
:102D100089E00E94CD031092FE021092FD020895F8
:102D2000CF93DF9300D000D000D0CDB7DEB778943A
:102D300084B5826084BD84B5816084BD85B58260C0
:102D400085BD85B5816085BD80916E008160809371
:102D50006E001092810080918100826080938100DA
:102D600080918100816080938100809180008160EA
:102D70008093800080919100826080939100809187
:102D80009100816080939100809190008160809398
:102D900090008091C10084608093C1008091C10047
:102DA00082608093C1008091C10081608093C100E6
:102DB0008091C30081608093C3008091C0008260D5
:102DC0008093C0008091C20081608093C200809196
:102DD0007A00846080937A0080917A008260809388
:102DE0007A0080917A008E7F80937A0080917A00B9
:102DF000806880937A001092910210925D02109286
:102E00005C028091D70081608093D70080EA809334
:102E1000D80089B58F7E89BD89B5826089BD09B426
:102E200000FEFDCF61E070E080E090E00E94B00421
:102E30008091D8008F7C80618093D8008091E000E1
:102E4000807F8093E0008091E1008E7E8093E1009E
:102E50008DE08093E2008FE691E00E943011809136
:102E60007102811145C010926302109262028FEFCD
:102E70008093660280936702809368028093690260
:102E800080936A0280936B0281E080936C021092BF
:102E90006E0210926D02109265021092640280918F
:102EA000980290919902892B31F480E692E09093F8
:102EB000990280939802E0915E02F0915F02309750
:102EC00021F080E692E09583848380E692E09093FF
:102ED0005F0280935E021092700210926F0287E28E
:102EE00091E0909361028093600281E0809371028F
:102EF000529A8AE792E0909363028093620282E0A2
:102F000090E090936E0280936D028091F102909117
:102F1000F202A091F302B091F402843C29E09207FE
:102F2000A105B10520F484EC99E0A0E0B0E0809325
:102F3000F1029093F202A093F302B093F4028FEFA8
:102F400080937A0280937B0280937C0222E030E0BF
:102F5000309381022093800280937D0280937E02D1
:102F600080937F0230938302209382020E94730534
:102F70000E945C0A8FEF9FEF9093AB028093AA02AE
:102F800060EA72E08EE992E00E94830B68E772E0EB
:102F90008EE992E00E94830B6AE572E08EE992E08E
:102FA0000E947E0281E08093100360E080916203C2
:102FB0000E94CD0361E0809161030E94CD0361E036
:102FC000809161030E949F03809164038F3F09F009
:102FD00074C01FB7F89480917902811127C0EDE980
:102FE000F1E08491EEE7F1E09491E82FF0E0EE0F4C
:102FF000FF1FE15AFE4FA591B491EC91E92321F412
:1030000061E081E10E949F0361E081E10E94CD03C4
:103010008CB580618CBD8CB580648CBD61E08FE027
:103020000E94CD0361E080E10E94CD03809179028E
:103030008F5F809379021FBF00E020E050E040E006
:103040006FEE7EEB83E093E00E940D0C182F8091D1
:10305000630387FD19C061E00E94CD0361E08091A8
:1030600063030E949F0360E0809163030E949F03BB
:103070006AE070E080E090E00E94B00461E080913E
:1030800063030E949F0311E00E946705609353034E
:1030900070935403809355039093560368EE73E046
:1030A00080E090E00E94B00411111AC062E172E069
:1030B0008EE992E00E94830BFFCF61E00E94CD0376
:1030C00060E0809164030E949F0360E0809166034A
:1030D0000E94CD0361E0809165030E94CD03ACCFD7
:1030E0006EE072E08EE992E00E94830B80E093E054
:1030F0009E838D8319821A821B821C82F0900F039B
:10310000F11005C061E083E093E00E940D076BEAD7
:1031100071E083E093E00E947E028E010F5F1F4FFB
:103120009E012B5F3F4F41E070E060E083E093E061
:103130000E942910F11005C060E083E093E00E9436
:103140000D076EE871E08EE992E00E94880A6FE553
:1031500071E08EE992E00E94880A10910F030091BD
:1031600010031092100364EC71E08EE992E00E946B
:10317000830B111107C080910F03813019F081E09A
:1031800080930F0360EC71E083E093E00E94830B77
:1031900083E093E00E947B0B892BE9F066E671E007
:1031A00081E193E00E94C01C892BA9F069E671E0DF
:1031B00081E193E00E94C01C892B69F061E173E01A
:1031C0008EE992E00E94880A6FE571E08EE992E054
:1031D0000E94880ADDCF111105C060E083E093E012
:1031E0000E940D076FEA71E08EE992E00E94830B66
:1031F0000093100366EE71E08EE992E00E94830B6B
:10320000109210030E945911811107C064EF71E000
:1032100080E090E00E94B004F5CF10910F031111EF
:1032200003C081E080930F0365ED71E083E093E0DC
:103230000E94830B83E093E00E947B0B69EA71E0BC
:1032400081E193E00E94C01C7C0183E093E00E9436
:10325000D80F111105C060E083E093E00E940D07D4
:10326000F7FC04C08FEA91E00E94301160E083E037
:1032700093E00E940D076BED71E08EE992E00E94F1
:10328000830B74E0E72EF12CF0928102E092800231
:1032900010927A0210927B021FEF10937C020E9420
:1032A0007305F0928302E092820210927D021092E6
:1032B0007E0210937F020E947305E3E04E2E512C94
:1032C000F5E06F2E712CA6E0EA2EF12CCC24C394ED
:1032D000D12C02E0A02EB12C00E880E0282E80E066
:1032E000382E90E0892E90E0992E0E94591181117C
:1032F00010C010927A0210927B0210927C020E94FF
:10330000730510927D0210927E0210927F020E943D
:10331000730583E093E00E947B0B8091110381365B
:10332000E9F480911203833309F4EDC00CF0D6C0A8
:10333000813309F4DEC0823309F4E0C080911303C5
:103340008093FF0280911403809300038091150302
:103350008093010380911603809302038091FD0204
:103360009091FE020697D1F48091FF028330B0F471
:1033700090E020910003FC01EE0FFF1FE058FD4F8D
:10338000422F50E051834083223009F4E7C008F017
:10339000CBC0213009F4D7C00E94730561EC71E005
:1033A00081E193E00E94C01C892B31F08091FD02E5
:1033B0009091FE02059711F40E945C0A66EC71E0A0
:1033C00081E193E00E94C01C892B31F08091FD02C5
:1033D0009091FE02019791F40E94700A61E08CE0E6
:1033E0000E949F0360E086E00E949F0360E08AE005
:1033F0000E949F0361E085E00E949F036EEC71E0F4
:1034000081E193E00E94C01C892B31F08091FD0284
:103410009091FE02029791F40E94700A60E08CE0A5
:103420000E949F0361E086E00E949F0361E08AE0C2
:103430000E949F0360E085E00E949F0363ED71E0BE
:1034400081E193E00E94C01C892B31F08091FD0244
:103450009091FE02039791F40E94700A61E08CE063
:103460000E949F0360E086E00E949F0361E08AE083
:103470000E949F0360E085E00E949F0368ED71E079
:1034800081E193E00E94C01C892B31F08091FD0204
:103490009091FE02049791F40E94700A60E08CE023
:1034A0000E949F0361E086E00E949F0360E08AE043
:1034B0000E949F0361E085E00E949F032114310474
:1034C00009F413CF8114910409F40FCF0E94000076
:1034D000882309F40ACF0E94000007CF8533F9F052
:1034E000BCF0863309F02ACFF092FE02E092FD0292
:1034F00025CFD092FE02C092FD0220CFB092FE02F4
:10350000A092FD021BCF5092FE024092FD0216CF08
:1035100084E090E09093FE028093FD020FCF7092C2
:10352000FE026092FD020ACF233019F1243009F027
:1035300033CFFC01EE0FFF1FE80FF91FE658FD4FD8
:103540001082118209C0FC01EE0FFF1FE80FF91F66
:10355000E658FD4F1083118312831ECFFC01EE0F3E
:10356000FF1FE80FF91FE658FD4F108311821282EA
:1035700013CFFC01EE0FFF1FE80FF91FE658FD4FB8
:1035800010820183F4CFB0E0A0E0E9ECFAE10C9402
:10359000241C5C016B017A016115710519F0FB01B6
:1035A00091838083E114F10451F0C701029783975E
:1035B00030F040E030E020E090E072C05E01E501D4
:1035C0002196F5011081812F90E00E94DA1B892B52
:1035D000A9F71D3201F52196F501118101E0E114F1
:1035E000F10409F4DAC0F0E1EF16F10409F082C049
:1035F000103359F488818F7D883509F076C01981A0
:1036000022960260F0E1EF2EF12C812C912CA12C5E
:1036100088E0B82E8CC01B3221F4E5012296F5011A
:10362000118100E0DCCFEAE0EE16F10409F4BBC042
:10363000F0E1EF16F10409F06DC0E7CF78E0E72E76
:10364000F12C812C912CA12C60E1B62E70C03FE9A9
:10365000310F3A3128F439EA332E80C021E09AC084
:10366000302F3170C114D10431F0222309F1219798
:10367000F601D183C08327FF21C060E070E080E0C5
:1036800090E8311104C06FEF7FEF8FEF9FE722E2E8
:1036900030E03093C6032093C503462F372F282FE1
:1036A000642F732F822FCDB7DEB7E1E10C94401C5D
:1036B00001FF04C02297F601D183C083332341F078
:1036C00090958095709561957F4F8F4F9F4FE5CF77
:1036D00097FFE3CF82E290E09093C6038093C50307
:1036E0006FEF7FEF8FEF9FE7D8CF10E3E114F10486
:1036F00009F4A4CF28E0E216F10409F4A2CF0CF0FB
:1037000092CF812C912CA12CE0E4BE2E82E0E81611
:10371000F10469F060E070E080E090E897010F2C20
:10372000000C440B550B0E94F61B49015A0120E086
:1037300060E070E0CB0127010F2C000C66087708D1
:10374000FE0150ED352E310E39E0331540F43FEBDC
:10375000310F3A3108F07BCF49EC342E310E3E1454
:103760001F040CF07DCF27FD15C086169706A8060E
:10377000B90678F0A30192010E94E61B630D711D4A
:10378000811D911D61307105810520E8920708F4C3
:1037900065CF2FEF21961081D3CF103309F42ACFB4
:1037A0002AE0E22EF12C9CEC892E982CA82C9CE08F
:1037B000B92EBDCF91110C94E31B803219F08950C2
:1037C0008550C8F70895992788270895DB018F93BE
:1037D0009F930E94181CBF91AF91A29F800D911DD5
:1037E000A39F900DB29F900D11240895A1E21A2E6F
:1037F000AA1BBB1BFD010DC0AA1FBB1FEE1FFF1F95
:10380000A217B307E407F50720F0A21BB30BE40BE4
:10381000F50B661F771F881F991F1A9469F760952B
:103820007095809590959B01AC01BD01CF010895E5
:103830000E945A1CA59F900DB49F900DA49F800DCF
:10384000911D112408952F923F924F925F926F9293
:103850007F928F929F92AF92BF92CF92DF92EF9220
:10386000FF920F931F93CF93DF93CDB7DEB7CA1BA1
:10387000DB0B0FB6F894DEBF0FBECDBF09942A88CC
:10388000398848885F846E847D848C849B84AA8474
:10389000B984C884DF80EE80FD800C811B81AA8101
:1038A000B981CE0FD11D0FB6F894DEBF0FBECDBFCC
:1038B000ED010895A29FB001B39FC001A39F700DB9
:1038C000811D1124911DB29F700D811D1124911D28
:1038D0000895AA1BBB1B51E107C0AA1FBB1FA61757
:1038E000B70710F0A61BB70B881F991F5A95A9F7A9
:1038F00080959095BC01CD01089597FB072E16F495
:10390000009407D077FD09D00E94691C07FC05D000
:103910003EF4909581959F4F0895709561957F4FE6
:103920000895EE0FFF1F0590F491E02D09940E9479
:103930005A1CB7FF0895821B930B089581E090E015
:10394000F8940C94D01CFB01DC0104C08D91019013
:10395000801921F441505040C8F7881B990B0895F5
:10396000FB01DC0102C001900D9241505040D8F79C
:103970000895DC0101C06D9341505040E0F7089577
:10398000FB01DC018D91019080190110D9F3990B95
:103990000895FB01DC0101900D920020E1F70895EC
:0439A000F894FFCFC9
:1039A400FFFFFFFF00E100000000000000C1808174
:1039B40000000000000000860A860A860A380A34DD
:1039C4000A310A00000000EE09AA09A809380A34DD
:1039D4000AEF01DA0700000000CF02E304F002E579
:1039E400021003F402000300000000540FE10E9AD9
:1039F400070307AF0E490EF70D0D070D0A4F4B0DC8
:103A04000A002B2B2B004F4B004552524F520041C2
:103A1400542B4741504445564E414D453D476572F0
:103A2400616C646F2D303030303030303600526588
:103A34007175657374696E6720426C75656672751D
:103A4400697420696E666F3A00302E362E36004156
:103A5400542B48574D6F64654C45443D4D4F444588
:103A64000073746F7000666F7277617264006261D4
:0E3A7400636B006C65667400726967687400AD
:00000001FF
